{
  "_format": "hh-sol-artifact-1",
  "contractName": "Lock",
  "sourceName": "contracts/Lock.sol",
  "abi": [
    {
      "inputs": [
        {
          "internalType": "address",
          "name": "initialOwner",
          "type": "address"
        }
      ],
      "stateMutability": "nonpayable",
      "type": "constructor"
    },
    {
      "inputs": [
        {
          "internalType": "address",
          "name": "sender",
          "type": "address"
        },
        {
          "internalType": "uint256",
          "name": "tokenId",
          "type": "uint256"
        },
        {
          "internalType": "address",
          "name": "owner",
          "type": "address"
        }
      ],
      "name": "ERC721IncorrectOwner",
      "type": "error"
    },
    {
      "inputs": [
        {
          "internalType": "address",
          "name": "operator",
          "type": "address"
        },
        {
          "internalType": "uint256",
          "name": "tokenId",
          "type": "uint256"
        }
      ],
      "name": "ERC721InsufficientApproval",
      "type": "error"
    },
    {
      "inputs": [
        {
          "internalType": "address",
          "name": "approver",
          "type": "address"
        }
      ],
      "name": "ERC721InvalidApprover",
      "type": "error"
    },
    {
      "inputs": [
        {
          "internalType": "address",
          "name": "operator",
          "type": "address"
        }
      ],
      "name": "ERC721InvalidOperator",
      "type": "error"
    },
    {
      "inputs": [
        {
          "internalType": "address",
          "name": "owner",
          "type": "address"
        }
      ],
      "name": "ERC721InvalidOwner",
      "type": "error"
    },
    {
      "inputs": [
        {
          "internalType": "address",
          "name": "receiver",
          "type": "address"
        }
      ],
      "name": "ERC721InvalidReceiver",
      "type": "error"
    },
    {
      "inputs": [
        {
          "internalType": "address",
          "name": "sender",
          "type": "address"
        }
      ],
      "name": "ERC721InvalidSender",
      "type": "error"
    },
    {
      "inputs": [
        {
          "internalType": "uint256",
          "name": "tokenId",
          "type": "uint256"
        }
      ],
      "name": "ERC721NonexistentToken",
      "type": "error"
    },
    {
      "inputs": [
        {
          "internalType": "address",
          "name": "owner",
          "type": "address"
        }
      ],
      "name": "OwnableInvalidOwner",
      "type": "error"
    },
    {
      "inputs": [
        {
          "internalType": "address",
          "name": "account",
          "type": "address"
        }
      ],
      "name": "OwnableUnauthorizedAccount",
      "type": "error"
    },
    {
      "anonymous": false,
      "inputs": [
        {
          "indexed": true,
          "internalType": "address",
          "name": "owner",
          "type": "address"
        },
        {
          "indexed": true,
          "internalType": "address",
          "name": "approved",
          "type": "address"
        },
        {
          "indexed": true,
          "internalType": "uint256",
          "name": "tokenId",
          "type": "uint256"
        }
      ],
      "name": "Approval",
      "type": "event"
    },
    {
      "anonymous": false,
      "inputs": [
        {
          "indexed": true,
          "internalType": "address",
          "name": "owner",
          "type": "address"
        },
        {
          "indexed": true,
          "internalType": "address",
          "name": "operator",
          "type": "address"
        },
        {
          "indexed": false,
          "internalType": "bool",
          "name": "approved",
          "type": "bool"
        }
      ],
      "name": "ApprovalForAll",
      "type": "event"
    },
    {
      "anonymous": false,
      "inputs": [
        {
          "indexed": false,
          "internalType": "uint256",
          "name": "_fromTokenId",
          "type": "uint256"
        },
        {
          "indexed": false,
          "internalType": "uint256",
          "name": "_toTokenId",
          "type": "uint256"
        }
      ],
      "name": "BatchMetadataUpdate",
      "type": "event"
    },
    {
      "anonymous": false,
      "inputs": [
        {
          "indexed": false,
          "internalType": "uint256",
          "name": "tokenId",
          "type": "uint256"
        }
      ],
      "name": "HarvestDelivered",
      "type": "event"
    },
    {
      "anonymous": false,
      "inputs": [
        {
          "indexed": false,
          "internalType": "uint256",
          "name": "tokenId",
          "type": "uint256"
        },
        {
          "indexed": false,
          "internalType": "address",
          "name": "buyer",
          "type": "address"
        },
        {
          "indexed": false,
          "internalType": "uint256",
          "name": "amount",
          "type": "uint256"
        }
      ],
      "name": "HarvestPurchased",
      "type": "event"
    },
    {
      "anonymous": false,
      "inputs": [
        {
          "indexed": false,
          "internalType": "uint256",
          "name": "tokenId",
          "type": "uint256"
        },
        {
          "indexed": false,
          "internalType": "address",
          "name": "farmer",
          "type": "address"
        },
        {
          "indexed": false,
          "internalType": "string",
          "name": "produceType",
          "type": "string"
        },
        {
          "indexed": false,
          "internalType": "uint256",
          "name": "quantity",
          "type": "uint256"
        }
      ],
      "name": "HarvestTokenized",
      "type": "event"
    },
    {
      "anonymous": false,
      "inputs": [
        {
          "indexed": false,
          "internalType": "uint256",
          "name": "_tokenId",
          "type": "uint256"
        }
      ],
      "name": "MetadataUpdate",
      "type": "event"
    },
    {
      "anonymous": false,
      "inputs": [
        {
          "indexed": true,
          "internalType": "address",
          "name": "previousOwner",
          "type": "address"
        },
        {
          "indexed": true,
          "internalType": "address",
          "name": "newOwner",
          "type": "address"
        }
      ],
      "name": "OwnershipTransferred",
      "type": "event"
    },
    {
      "anonymous": false,
      "inputs": [
        {
          "indexed": true,
          "internalType": "address",
          "name": "from",
          "type": "address"
        },
        {
          "indexed": true,
          "internalType": "address",
          "name": "to",
          "type": "address"
        },
        {
          "indexed": true,
          "internalType": "uint256",
          "name": "tokenId",
          "type": "uint256"
        }
      ],
      "name": "Transfer",
      "type": "event"
    },
    {
      "inputs": [
        {
          "internalType": "address",
          "name": "to",
          "type": "address"
        },
        {
          "internalType": "uint256",
          "name": "tokenId",
          "type": "uint256"
        }
      ],
      "name": "approve",
      "outputs": [],
      "stateMutability": "nonpayable",
      "type": "function"
    },
    {
      "inputs": [
        {
          "internalType": "address",
          "name": "owner",
          "type": "address"
        }
      ],
      "name": "balanceOf",
      "outputs": [
        {
          "internalType": "uint256",
          "name": "",
          "type": "uint256"
        }
      ],
      "stateMutability": "view",
      "type": "function"
    },
    {
      "inputs": [
        {
          "internalType": "uint256",
          "name": "tokenId",
          "type": "uint256"
        }
      ],
      "name": "confirmDelivery",
      "outputs": [],
      "stateMutability": "nonpayable",
      "type": "function"
    },
    {
      "inputs": [
        {
          "internalType": "uint256",
          "name": "tokenId",
          "type": "uint256"
        }
      ],
      "name": "getApproved",
      "outputs": [
        {
          "internalType": "address",
          "name": "",
          "type": "address"
        }
      ],
      "stateMutability": "view",
      "type": "function"
    },
    {
      "inputs": [],
      "name": "getAvailableTokens",
      "outputs": [
        {
          "components": [
            {
              "internalType": "string",
              "name": "produceType",
              "type": "string"
            },
            {
              "internalType": "uint256",
              "name": "quantity",
              "type": "uint256"
            },
            {
              "internalType": "uint256",
              "name": "expectedDeliveryDate",
              "type": "uint256"
            },
            {
              "internalType": "uint256",
              "name": "pricePerUnit",
              "type": "uint256"
            },
            {
              "internalType": "bool",
              "name": "isDelivered",
              "type": "bool"
            },
            {
              "internalType": "address",
              "name": "farmer",
              "type": "address"
            },
            {
              "internalType": "address",
              "name": "buyer",
              "type": "address"
            }
          ],
          "internalType": "struct Lock.Harvest[]",
          "name": "",
          "type": "tuple[]"
        }
      ],
      "stateMutability": "view",
      "type": "function"
    },
    {
      "inputs": [
        {
          "internalType": "uint256",
          "name": "",
          "type": "uint256"
        }
      ],
      "name": "harvests",
      "outputs": [
        {
          "internalType": "string",
          "name": "produceType",
          "type": "string"
        },
        {
          "internalType": "uint256",
          "name": "quantity",
          "type": "uint256"
        },
        {
          "internalType": "uint256",
          "name": "expectedDeliveryDate",
          "type": "uint256"
        },
        {
          "internalType": "uint256",
          "name": "pricePerUnit",
          "type": "uint256"
        },
        {
          "internalType": "bool",
          "name": "isDelivered",
          "type": "bool"
        },
        {
          "internalType": "address",
          "name": "farmer",
          "type": "address"
        },
        {
          "internalType": "address",
          "name": "buyer",
          "type": "address"
        }
      ],
      "stateMutability": "view",
      "type": "function"
    },
    {
      "inputs": [
        {
          "internalType": "address",
          "name": "owner",
          "type": "address"
        },
        {
          "internalType": "address",
          "name": "operator",
          "type": "address"
        }
      ],
      "name": "isApprovedForAll",
      "outputs": [
        {
          "internalType": "bool",
          "name": "",
          "type": "bool"
        }
      ],
      "stateMutability": "view",
      "type": "function"
    },
    {
      "inputs": [],
      "name": "name",
      "outputs": [
        {
          "internalType": "string",
          "name": "",
          "type": "string"
        }
      ],
      "stateMutability": "view",
      "type": "function"
    },
    {
      "inputs": [],
      "name": "owner",
      "outputs": [
        {
          "internalType": "address",
          "name": "",
          "type": "address"
        }
      ],
      "stateMutability": "view",
      "type": "function"
    },
    {
      "inputs": [
        {
          "internalType": "uint256",
          "name": "tokenId",
          "type": "uint256"
        }
      ],
      "name": "ownerOf",
      "outputs": [
        {
          "internalType": "address",
          "name": "",
          "type": "address"
        }
      ],
      "stateMutability": "view",
      "type": "function"
    },
    {
      "inputs": [
        {
          "internalType": "uint256",
          "name": "tokenId",
          "type": "uint256"
        }
      ],
      "name": "purchaseHarvest",
      "outputs": [],
      "stateMutability": "payable",
      "type": "function"
    },
    {
      "inputs": [],
      "name": "renounceOwnership",
      "outputs": [],
      "stateMutability": "nonpayable",
      "type": "function"
    },
    {
      "inputs": [
        {
          "internalType": "address",
          "name": "from",
          "type": "address"
        },
        {
          "internalType": "address",
          "name": "to",
          "type": "address"
        },
        {
          "internalType": "uint256",
          "name": "tokenId",
          "type": "uint256"
        }
      ],
      "name": "safeTransferFrom",
      "outputs": [],
      "stateMutability": "nonpayable",
      "type": "function"
    },
    {
      "inputs": [
        {
          "internalType": "address",
          "name": "from",
          "type": "address"
        },
        {
          "internalType": "address",
          "name": "to",
          "type": "address"
        },
        {
          "internalType": "uint256",
          "name": "tokenId",
          "type": "uint256"
        },
        {
          "internalType": "bytes",
          "name": "data",
          "type": "bytes"
        }
      ],
      "name": "safeTransferFrom",
      "outputs": [],
      "stateMutability": "nonpayable",
      "type": "function"
    },
    {
      "inputs": [
        {
          "internalType": "address",
          "name": "operator",
          "type": "address"
        },
        {
          "internalType": "bool",
          "name": "approved",
          "type": "bool"
        }
      ],
      "name": "setApprovalForAll",
      "outputs": [],
      "stateMutability": "nonpayable",
      "type": "function"
    },
    {
      "inputs": [
        {
          "internalType": "bytes4",
          "name": "interfaceId",
          "type": "bytes4"
        }
      ],
      "name": "supportsInterface",
      "outputs": [
        {
          "internalType": "bool",
          "name": "",
          "type": "bool"
        }
      ],
      "stateMutability": "view",
      "type": "function"
    },
    {
      "inputs": [],
      "name": "symbol",
      "outputs": [
        {
          "internalType": "string",
          "name": "",
          "type": "string"
        }
      ],
      "stateMutability": "view",
      "type": "function"
    },
    {
      "inputs": [
        {
          "internalType": "uint256",
          "name": "tokenId",
          "type": "uint256"
        }
      ],
      "name": "tokenURI",
      "outputs": [
        {
          "internalType": "string",
          "name": "",
          "type": "string"
        }
      ],
      "stateMutability": "view",
      "type": "function"
    },
    {
      "inputs": [
        {
          "internalType": "string",
          "name": "produceType",
          "type": "string"
        },
        {
          "internalType": "uint256",
          "name": "quantity",
          "type": "uint256"
        },
        {
          "internalType": "uint256",
          "name": "expectedDeliveryDate",
          "type": "uint256"
        },
        {
          "internalType": "uint256",
          "name": "pricePerUnit",
          "type": "uint256"
        },
        {
          "internalType": "string",
          "name": "tokenURI",
          "type": "string"
        }
      ],
      "name": "tokenizeHarvest",
      "outputs": [
        {
          "internalType": "uint256",
          "name": "",
          "type": "uint256"
        }
      ],
      "stateMutability": "nonpayable",
      "type": "function"
    },
    {
      "inputs": [
        {
          "internalType": "address",
          "name": "from",
          "type": "address"
        },
        {
          "internalType": "address",
          "name": "to",
          "type": "address"
        },
        {
          "internalType": "uint256",
          "name": "tokenId",
          "type": "uint256"
        }
      ],
      "name": "transferFrom",
      "outputs": [],
      "stateMutability": "nonpayable",
      "type": "function"
    },
    {
      "inputs": [
        {
          "internalType": "address",
          "name": "newOwner",
          "type": "address"
        }
      ],
      "name": "transferOwnership",
      "outputs": [],
      "stateMutability": "nonpayable",
      "type": "function"
    },
    {
      "inputs": [
        {
          "internalType": "address",
          "name": "",
          "type": "address"
        }
      ],
      "name": "verifiedFarmers",
      "outputs": [
        {
          "internalType": "bool",
          "name": "",
          "type": "bool"
        }
      ],
      "stateMutability": "view",
      "type": "function"
    }
  ],
  "bytecode": "0x608060405234801561001057600080fd5b50604051613d9a380380613d9a83398181016040528101906100329190610272565b806040518060400160405280601a81526020017f4167726963756c747572616c204861727665737420546f6b656e0000000000008152506040518060400160405280600381526020017f414854000000000000000000000000000000000000000000000000000000000081525081600090816100ae91906104ef565b5080600190816100be91906104ef565b505050600073ffffffffffffffffffffffffffffffffffffffff168173ffffffffffffffffffffffffffffffffffffffff16036101335760006040517f1e4fbdf700000000000000000000000000000000000000000000000000000000815260040161012a91906105d0565b60405180910390fd5b6101428161014960201b60201c565b50506105eb565b6000600760009054906101000a900473ffffffffffffffffffffffffffffffffffffffff16905081600760006101000a81548173ffffffffffffffffffffffffffffffffffffffff021916908373ffffffffffffffffffffffffffffffffffffffff1602179055508173ffffffffffffffffffffffffffffffffffffffff168173ffffffffffffffffffffffffffffffffffffffff167f8be0079c531659141344cd1fd0a4f28419497f9722a3daafe3b4186f6b6457e060405160405180910390a35050565b600080fd5b600073ffffffffffffffffffffffffffffffffffffffff82169050919050565b600061023f82610214565b9050919050565b61024f81610234565b811461025a57600080fd5b50565b60008151905061026c81610246565b92915050565b6000602082840312156102885761028761020f565b5b60006102968482850161025d565b91505092915050565b600081519050919050565b7f4e487b7100000000000000000000000000000000000000000000000000000000600052604160045260246000fd5b7f4e487b7100000000000000000000000000000000000000000000000000000000600052602260045260246000fd5b6000600282049050600182168061032057607f821691505b602082108103610333576103326102d9565b5b50919050565b60008190508160005260206000209050919050565b60006020601f8301049050919050565b600082821b905092915050565b60006008830261039b7fffffffffffffffffffffffffffffffffffffffffffffffffffffffffffffffff8261035e565b6103a5868361035e565b95508019841693508086168417925050509392505050565b6000819050919050565b6000819050919050565b60006103ec6103e76103e2846103bd565b6103c7565b6103bd565b9050919050565b6000819050919050565b610406836103d1565b61041a610412826103f3565b84845461036b565b825550505050565b600090565b61042f610422565b61043a8184846103fd565b505050565b5b8181101561045e57610453600082610427565b600181019050610440565b5050565b601f8211156104a35761047481610339565b61047d8461034e565b8101602085101561048c578190505b6104a06104988561034e565b83018261043f565b50505b505050565b600082821c905092915050565b60006104c6600019846008026104a8565b1980831691505092915050565b60006104df83836104b5565b9150826002028217905092915050565b6104f88261029f565b67ffffffffffffffff811115610511576105106102aa565b5b61051b8254610308565b610526828285610462565b600060209050601f8311600181146105595760008415610547578287015190505b61055185826104d3565b8655506105b9565b601f19841661056786610339565b60005b8281101561058f5784890151825560018201915060208501945060208101905061056a565b868310156105ac57848901516105a8601f8916826104b5565b8355505b6001600288020188555050505b505050505050565b6105ca81610234565b82525050565b60006020820190506105e560008301846105c1565b92915050565b6137a0806105fa6000396000f3fe6080604052600436106101355760003560e01c80638da5cb5b116100ab578063c87b56dd1161006f578063c87b56dd14610450578063cfa598dc1461048d578063e35568cb146104a9578063e985e9c5146104d4578063f2fde38b14610511578063fd84cb971461053a57610135565b80638da5cb5b1461036b57806395d89b4114610396578063a22cb465146103c1578063a639ffe8146103ea578063b88d4fde1461042757610135565b806323b872dd116100fd57806323b872dd1461024557806335a423b01461026e57806342842e0e146102b15780636352211e146102da57806370a0823114610317578063715018a61461035457610135565b806301ffc9a71461013a57806306fdde0314610177578063081812fc146101a2578063095ea7b3146101df5780630c3d272c14610208575b600080fd5b34801561014657600080fd5b50610161600480360381019061015c91906126fc565b610563565b60405161016e9190612744565b60405180910390f35b34801561018357600080fd5b5061018c6105c4565b60405161019991906127ef565b60405180910390f35b3480156101ae57600080fd5b506101c960048036038101906101c49190612847565b610656565b6040516101d691906128b5565b60405180910390f35b3480156101eb57600080fd5b50610206600480360381019061020191906128fc565b610672565b005b34801561021457600080fd5b5061022f600480360381019061022a919061293c565b610688565b60405161023c9190612744565b60405180910390f35b34801561025157600080fd5b5061026c60048036038101906102679190612969565b6106a8565b005b34801561027a57600080fd5b5061029560048036038101906102909190612847565b6107aa565b6040516102a897969594939291906129cb565b60405180910390f35b3480156102bd57600080fd5b506102d860048036038101906102d39190612969565b6108c1565b005b3480156102e657600080fd5b5061030160048036038101906102fc9190612847565b6108e1565b60405161030e91906128b5565b60405180910390f35b34801561032357600080fd5b5061033e6004803603810190610339919061293c565b6108f3565b60405161034b9190612a41565b60405180910390f35b34801561036057600080fd5b506103696109ad565b005b34801561037757600080fd5b506103806109c1565b60405161038d91906128b5565b60405180910390f35b3480156103a257600080fd5b506103ab6109eb565b6040516103b891906127ef565b60405180910390f35b3480156103cd57600080fd5b506103e860048036038101906103e39190612a88565b610a7d565b005b3480156103f657600080fd5b50610411600480360381019061040c9190612bfd565b610a93565b60405161041e9190612a41565b60405180910390f35b34801561043357600080fd5b5061044e60048036038101906104499190612d51565b610c66565b005b34801561045c57600080fd5b5061047760048036038101906104729190612847565b610c8b565b60405161048491906127ef565b60405180910390f35b6104a760048036038101906104a29190612847565b610d9e565b005b3480156104b557600080fd5b506104be610fb9565b6040516104cb9190612fa9565b60405180910390f35b3480156104e057600080fd5b506104fb60048036038101906104f69190612fcb565b61123e565b6040516105089190612744565b60405180910390f35b34801561051d57600080fd5b506105386004803603810190610533919061293c565b6112d2565b005b34801561054657600080fd5b50610561600480360381019061055c9190612847565b611358565b005b6000634906490660e01b7bffffffffffffffffffffffffffffffffffffffffffffffffffffffff1916827bffffffffffffffffffffffffffffffffffffffffffffffffffffffff191614806105bd57506105bc82611465565b5b9050919050565b6060600080546105d39061303a565b80601f01602080910402602001604051908101604052809291908181526020018280546105ff9061303a565b801561064c5780601f106106215761010080835404028352916020019161064c565b820191906000526020600020905b81548152906001019060200180831161062f57829003601f168201915b5050505050905090565b600061066182611547565b5061066b826115cf565b9050919050565b610684828261067f61160c565b611614565b5050565b600a6020528060005260406000206000915054906101000a900460ff1681565b600073ffffffffffffffffffffffffffffffffffffffff168273ffffffffffffffffffffffffffffffffffffffff160361071a5760006040517f64a0ae9200000000000000000000000000000000000000000000000000000000815260040161071191906128b5565b60405180910390fd5b600061072e838361072961160c565b611626565b90508373ffffffffffffffffffffffffffffffffffffffff168173ffffffffffffffffffffffffffffffffffffffff16146107a4578382826040517f64283d7b00000000000000000000000000000000000000000000000000000000815260040161079b9392919061306b565b60405180910390fd5b50505050565b60096020528060005260406000206000915090508060000180546107cd9061303a565b80601f01602080910402602001604051908101604052809291908181526020018280546107f99061303a565b80156108465780601f1061081b57610100808354040283529160200191610846565b820191906000526020600020905b81548152906001019060200180831161082957829003601f168201915b5050505050908060010154908060020154908060030154908060040160009054906101000a900460ff16908060040160019054906101000a900473ffffffffffffffffffffffffffffffffffffffff16908060050160009054906101000a900473ffffffffffffffffffffffffffffffffffffffff16905087565b6108dc83838360405180602001604052806000815250610c66565b505050565b60006108ec82611547565b9050919050565b60008073ffffffffffffffffffffffffffffffffffffffff168273ffffffffffffffffffffffffffffffffffffffff16036109665760006040517f89c62b6400000000000000000000000000000000000000000000000000000000815260040161095d91906128b5565b60405180910390fd5b600360008373ffffffffffffffffffffffffffffffffffffffff1673ffffffffffffffffffffffffffffffffffffffff168152602001908152602001600020549050919050565b6109b5611840565b6109bf60006118c7565b565b6000600760009054906101000a900473ffffffffffffffffffffffffffffffffffffffff16905090565b6060600180546109fa9061303a565b80601f0160208091040260200160405190810160405280929190818152602001828054610a269061303a565b8015610a735780601f10610a4857610100808354040283529160200191610a73565b820191906000526020600020905b815481529060010190602001808311610a5657829003601f168201915b5050505050905090565b610a8f610a8861160c565b838361198d565b5050565b6000610a9f6008611afc565b6000610aab6008611b12565b9050610ab73382611b20565b610ac18184611c19565b6040518060e001604052808881526020018781526020018681526020018581526020016000151581526020013373ffffffffffffffffffffffffffffffffffffffff168152602001600073ffffffffffffffffffffffffffffffffffffffff16815250600960008381526020019081526020016000206000820151816000019081610b4c919061324e565b5060208201518160010155604082015181600201556060820151816003015560808201518160040160006101000a81548160ff02191690831515021790555060a08201518160040160016101000a81548173ffffffffffffffffffffffffffffffffffffffff021916908373ffffffffffffffffffffffffffffffffffffffff16021790555060c08201518160050160006101000a81548173ffffffffffffffffffffffffffffffffffffffff021916908373ffffffffffffffffffffffffffffffffffffffff1602179055509050507f563f58d432e6e9614127bc1bfaf46affa0ce967b486deb086be3e80ea376b89381338989604051610c519493929190613320565b60405180910390a18091505095945050505050565b610c718484846106a8565b610c85610c7c61160c565b85858585611c75565b50505050565b6060610c9682611547565b506000600660008481526020019081526020016000208054610cb79061303a565b80601f0160208091040260200160405190810160405280929190818152602001828054610ce39061303a565b8015610d305780601f10610d0557610100808354040283529160200191610d30565b820191906000526020600020905b815481529060010190602001808311610d1357829003601f168201915b505050505090506000610d41611e26565b90506000815103610d56578192505050610d99565b600082511115610d8b578082604051602001610d739291906133a8565b60405160208183030381529060405292505050610d99565b610d9484611e3d565b925050505b919050565b6000600960008381526020019081526020016000209050600073ffffffffffffffffffffffffffffffffffffffff168160050160009054906101000a900473ffffffffffffffffffffffffffffffffffffffff1673ffffffffffffffffffffffffffffffffffffffff1614610e48576040517f08c379a0000000000000000000000000000000000000000000000000000000008152600401610e3f90613418565b60405180910390fd5b80600301548160010154610e5c9190613467565b3414610e9d576040517f08c379a0000000000000000000000000000000000000000000000000000000008152600401610e94906134f5565b60405180910390fd5b338160050160006101000a81548173ffffffffffffffffffffffffffffffffffffffff021916908373ffffffffffffffffffffffffffffffffffffffff1602179055508060040160019054906101000a900473ffffffffffffffffffffffffffffffffffffffff1673ffffffffffffffffffffffffffffffffffffffff166108fc349081150290604051600060405180830381858888f19350505050158015610f4a573d6000803e3d6000fd5b50610f7a8160040160019054906101000a900473ffffffffffffffffffffffffffffffffffffffff163384611ea6565b7f45d5199340668abbb6225a3ba0b4f9c8120ac95d0f618911e5dd85a8c8445339823334604051610fad93929190613515565b60405180910390a15050565b60606000610fc76008611b12565b905060008167ffffffffffffffff811115610fe557610fe4612ad2565b5b60405190808252806020026020018201604052801561101e57816020015b61100b612625565b8152602001906001900390816110035790505b509050600080600190505b83811161123457600015156009600083815260200190815260200160002060040160009054906101000a900460ff1615150361122157600960008281526020019081526020016000206040518060e001604052908160008201805461108d9061303a565b80601f01602080910402602001604051908101604052809291908181526020018280546110b99061303a565b80156111065780601f106110db57610100808354040283529160200191611106565b820191906000526020600020905b8154815290600101906020018083116110e957829003601f168201915b505050505081526020016001820154815260200160028201548152602001600382015481526020016004820160009054906101000a900460ff161515151581526020016004820160019054906101000a900473ffffffffffffffffffffffffffffffffffffffff1673ffffffffffffffffffffffffffffffffffffffff1673ffffffffffffffffffffffffffffffffffffffff1681526020016005820160009054906101000a900473ffffffffffffffffffffffffffffffffffffffff1673ffffffffffffffffffffffffffffffffffffffff1673ffffffffffffffffffffffffffffffffffffffff16815250508383815181106112075761120661354c565b5b6020026020010181905250818061121d9061357b565b9250505b808061122c9061357b565b915050611029565b5081935050505090565b6000600560008473ffffffffffffffffffffffffffffffffffffffff1673ffffffffffffffffffffffffffffffffffffffff16815260200190815260200160002060008373ffffffffffffffffffffffffffffffffffffffff1673ffffffffffffffffffffffffffffffffffffffff16815260200190815260200160002060009054906101000a900460ff16905092915050565b6112da611840565b600073ffffffffffffffffffffffffffffffffffffffff168173ffffffffffffffffffffffffffffffffffffffff160361134c5760006040517f1e4fbdf700000000000000000000000000000000000000000000000000000000815260040161134391906128b5565b60405180910390fd5b611355816118c7565b50565b6009600082815260200190815260200160002060050160009054906101000a900473ffffffffffffffffffffffffffffffffffffffff1673ffffffffffffffffffffffffffffffffffffffff163373ffffffffffffffffffffffffffffffffffffffff16146113fc576040517f08c379a00000000000000000000000000000000000000000000000000000000081526004016113f39061360f565b60405180910390fd5b60016009600083815260200190815260200160002060040160006101000a81548160ff0219169083151502179055507f13e6eb17e35474a6447184edd7fb651e61530ac94035e6ef863746e2c6d95c548160405161145a9190612a41565b60405180910390a150565b60007f80ac58cd000000000000000000000000000000000000000000000000000000007bffffffffffffffffffffffffffffffffffffffffffffffffffffffff1916827bffffffffffffffffffffffffffffffffffffffffffffffffffffffff1916148061153057507f5b5e139f000000000000000000000000000000000000000000000000000000007bffffffffffffffffffffffffffffffffffffffffffffffffffffffff1916827bffffffffffffffffffffffffffffffffffffffffffffffffffffffff1916145b80611540575061153f82612013565b5b9050919050565b6000806115538361207d565b9050600073ffffffffffffffffffffffffffffffffffffffff168173ffffffffffffffffffffffffffffffffffffffff16036115c657826040517f7e2732890000000000000000000000000000000000000000000000000000000081526004016115bd9190612a41565b60405180910390fd5b80915050919050565b60006004600083815260200190815260200160002060009054906101000a900473ffffffffffffffffffffffffffffffffffffffff169050919050565b600033905090565b61162183838360016120ba565b505050565b6000806116328461207d565b9050600073ffffffffffffffffffffffffffffffffffffffff168373ffffffffffffffffffffffffffffffffffffffff16146116745761167381848661227f565b5b600073ffffffffffffffffffffffffffffffffffffffff168173ffffffffffffffffffffffffffffffffffffffff1614611705576116b66000856000806120ba565b6001600360008373ffffffffffffffffffffffffffffffffffffffff1673ffffffffffffffffffffffffffffffffffffffff168152602001908152602001600020600082825403925050819055505b600073ffffffffffffffffffffffffffffffffffffffff168573ffffffffffffffffffffffffffffffffffffffff1614611788576001600360008773ffffffffffffffffffffffffffffffffffffffff1673ffffffffffffffffffffffffffffffffffffffff168152602001908152602001600020600082825401925050819055505b846002600086815260200190815260200160002060006101000a81548173ffffffffffffffffffffffffffffffffffffffff021916908373ffffffffffffffffffffffffffffffffffffffff160217905550838573ffffffffffffffffffffffffffffffffffffffff168273ffffffffffffffffffffffffffffffffffffffff167fddf252ad1be2c89b69c2b068fc378daa952ba7f163c4a11628f55a4df523b3ef60405160405180910390a4809150509392505050565b61184861160c565b73ffffffffffffffffffffffffffffffffffffffff166118666109c1565b73ffffffffffffffffffffffffffffffffffffffff16146118c55761188961160c565b6040517f118cdaa70000000000000000000000000000000000000000000000000000000081526004016118bc91906128b5565b60405180910390fd5b565b6000600760009054906101000a900473ffffffffffffffffffffffffffffffffffffffff16905081600760006101000a81548173ffffffffffffffffffffffffffffffffffffffff021916908373ffffffffffffffffffffffffffffffffffffffff1602179055508173ffffffffffffffffffffffffffffffffffffffff168173ffffffffffffffffffffffffffffffffffffffff167f8be0079c531659141344cd1fd0a4f28419497f9722a3daafe3b4186f6b6457e060405160405180910390a35050565b600073ffffffffffffffffffffffffffffffffffffffff168273ffffffffffffffffffffffffffffffffffffffff16036119fe57816040517f5b08ba180000000000000000000000000000000000000000000000000000000081526004016119f591906128b5565b60405180910390fd5b80600560008573ffffffffffffffffffffffffffffffffffffffff1673ffffffffffffffffffffffffffffffffffffffff16815260200190815260200160002060008473ffffffffffffffffffffffffffffffffffffffff1673ffffffffffffffffffffffffffffffffffffffff16815260200190815260200160002060006101000a81548160ff0219169083151502179055508173ffffffffffffffffffffffffffffffffffffffff168373ffffffffffffffffffffffffffffffffffffffff167f17307eab39ab6107e8899845ad3d59bd9653f200f220920489ca2b5937696c3183604051611aef9190612744565b60405180910390a3505050565b6001816000016000828254019250508190555050565b600081600001549050919050565b600073ffffffffffffffffffffffffffffffffffffffff168273ffffffffffffffffffffffffffffffffffffffff1603611b925760006040517f64a0ae92000000000000000000000000000000000000000000000000000000008152600401611b8991906128b5565b60405180910390fd5b6000611ba083836000611626565b9050600073ffffffffffffffffffffffffffffffffffffffff168173ffffffffffffffffffffffffffffffffffffffff1614611c145760006040517f73c6ac6e000000000000000000000000000000000000000000000000000000008152600401611c0b91906128b5565b60405180910390fd5b505050565b80600660008481526020019081526020016000209081611c39919061324e565b507ff8e1a15aba9398e019f0b49df1a4fde98ee17ae345cb5f6b5e2c27f5033e8ce782604051611c699190612a41565b60405180910390a15050565b60008373ffffffffffffffffffffffffffffffffffffffff163b1115611e1f578273ffffffffffffffffffffffffffffffffffffffff1663150b7a02868685856040518563ffffffff1660e01b8152600401611cd49493929190613684565b6020604051808303816000875af1925050508015611d1057506040513d601f19601f82011682018060405250810190611d0d91906136e5565b60015b611d94573d8060008114611d40576040519150601f19603f3d011682016040523d82523d6000602084013e611d45565b606091505b506000815103611d8c57836040517f64a0ae92000000000000000000000000000000000000000000000000000000008152600401611d8391906128b5565b60405180910390fd5b805181602001fd5b63150b7a0260e01b7bffffffffffffffffffffffffffffffffffffffffffffffffffffffff1916817bffffffffffffffffffffffffffffffffffffffffffffffffffffffff191614611e1d57836040517f64a0ae92000000000000000000000000000000000000000000000000000000008152600401611e1491906128b5565b60405180910390fd5b505b5050505050565b606060405180602001604052806000815250905090565b6060611e4882611547565b506000611e53611e26565b90506000815111611e735760405180602001604052806000815250611e9e565b80611e7d84612343565b604051602001611e8e9291906133a8565b6040516020818303038152906040525b915050919050565b600073ffffffffffffffffffffffffffffffffffffffff168273ffffffffffffffffffffffffffffffffffffffff1603611f185760006040517f64a0ae92000000000000000000000000000000000000000000000000000000008152600401611f0f91906128b5565b60405180910390fd5b6000611f2683836000611626565b9050600073ffffffffffffffffffffffffffffffffffffffff168173ffffffffffffffffffffffffffffffffffffffff1603611f9957816040517f7e273289000000000000000000000000000000000000000000000000000000008152600401611f909190612a41565b60405180910390fd5b8373ffffffffffffffffffffffffffffffffffffffff168173ffffffffffffffffffffffffffffffffffffffff161461200d578382826040517f64283d7b0000000000000000000000000000000000000000000000000000000081526004016120049392919061306b565b60405180910390fd5b50505050565b60007f01ffc9a7000000000000000000000000000000000000000000000000000000007bffffffffffffffffffffffffffffffffffffffffffffffffffffffff1916827bffffffffffffffffffffffffffffffffffffffffffffffffffffffff1916149050919050565b60006002600083815260200190815260200160002060009054906101000a900473ffffffffffffffffffffffffffffffffffffffff169050919050565b80806120f35750600073ffffffffffffffffffffffffffffffffffffffff168273ffffffffffffffffffffffffffffffffffffffff1614155b1561222757600061210384611547565b9050600073ffffffffffffffffffffffffffffffffffffffff168373ffffffffffffffffffffffffffffffffffffffff161415801561216e57508273ffffffffffffffffffffffffffffffffffffffff168173ffffffffffffffffffffffffffffffffffffffff1614155b8015612181575061217f818461123e565b155b156121c357826040517fa9fbf51f0000000000000000000000000000000000000000000000000000000081526004016121ba91906128b5565b60405180910390fd5b811561222557838573ffffffffffffffffffffffffffffffffffffffff168273ffffffffffffffffffffffffffffffffffffffff167f8c5be1e5ebec7d5bd14f71427d1e84f3dd0314c0f7b2291e5b200ac8c7c3b92560405160405180910390a45b505b836004600085815260200190815260200160002060006101000a81548173ffffffffffffffffffffffffffffffffffffffff021916908373ffffffffffffffffffffffffffffffffffffffff16021790555050505050565b61228a838383612411565b61233e57600073ffffffffffffffffffffffffffffffffffffffff168373ffffffffffffffffffffffffffffffffffffffff16036122ff57806040517f7e2732890000000000000000000000000000000000000000000000000000000081526004016122f69190612a41565b60405180910390fd5b81816040517f177e802f000000000000000000000000000000000000000000000000000000008152600401612335929190613712565b60405180910390fd5b505050565b606060006001612352846124d2565b01905060008167ffffffffffffffff81111561237157612370612ad2565b5b6040519080825280601f01601f1916602001820160405280156123a35781602001600182028036833780820191505090505b509050600082602001820190505b600115612406578080600190039150507f3031323334353637383961626364656600000000000000000000000000000000600a86061a8153600a85816123fa576123f961373b565b5b049450600085036123b1575b819350505050919050565b60008073ffffffffffffffffffffffffffffffffffffffff168373ffffffffffffffffffffffffffffffffffffffff16141580156124c957508273ffffffffffffffffffffffffffffffffffffffff168473ffffffffffffffffffffffffffffffffffffffff16148061248a5750612489848461123e565b5b806124c857508273ffffffffffffffffffffffffffffffffffffffff166124b0836115cf565b73ffffffffffffffffffffffffffffffffffffffff16145b5b90509392505050565b600080600090507a184f03e93ff9f4daa797ed6e38ed64bf6a1f0100000000000000008310612530577a184f03e93ff9f4daa797ed6e38ed64bf6a1f01000000000000000083816125265761252561373b565b5b0492506040810190505b6d04ee2d6d415b85acef8100000000831061256d576d04ee2d6d415b85acef810000000083816125635761256261373b565b5b0492506020810190505b662386f26fc10000831061259c57662386f26fc1000083816125925761259161373b565b5b0492506010810190505b6305f5e10083106125c5576305f5e10083816125bb576125ba61373b565b5b0492506008810190505b61271083106125ea5761271083816125e0576125df61373b565b5b0492506004810190505b6064831061260d57606483816126035761260261373b565b5b0492506002810190505b600a831061261c576001810190505b80915050919050565b6040518060e0016040528060608152602001600081526020016000815260200160008152602001600015158152602001600073ffffffffffffffffffffffffffffffffffffffff168152602001600073ffffffffffffffffffffffffffffffffffffffff1681525090565b6000604051905090565b600080fd5b600080fd5b60007fffffffff0000000000000000000000000000000000000000000000000000000082169050919050565b6126d9816126a4565b81146126e457600080fd5b50565b6000813590506126f6816126d0565b92915050565b6000602082840312156127125761271161269a565b5b6000612720848285016126e7565b91505092915050565b60008115159050919050565b61273e81612729565b82525050565b60006020820190506127596000830184612735565b92915050565b600081519050919050565b600082825260208201905092915050565b60005b8381101561279957808201518184015260208101905061277e565b60008484015250505050565b6000601f19601f8301169050919050565b60006127c18261275f565b6127cb818561276a565b93506127db81856020860161277b565b6127e4816127a5565b840191505092915050565b6000602082019050818103600083015261280981846127b6565b905092915050565b6000819050919050565b61282481612811565b811461282f57600080fd5b50565b6000813590506128418161281b565b92915050565b60006020828403121561285d5761285c61269a565b5b600061286b84828501612832565b91505092915050565b600073ffffffffffffffffffffffffffffffffffffffff82169050919050565b600061289f82612874565b9050919050565b6128af81612894565b82525050565b60006020820190506128ca60008301846128a6565b92915050565b6128d981612894565b81146128e457600080fd5b50565b6000813590506128f6816128d0565b92915050565b600080604083850312156129135761291261269a565b5b6000612921858286016128e7565b925050602061293285828601612832565b9150509250929050565b6000602082840312156129525761295161269a565b5b6000612960848285016128e7565b91505092915050565b6000806000606084860312156129825761298161269a565b5b6000612990868287016128e7565b93505060206129a1868287016128e7565b92505060406129b286828701612832565b9150509250925092565b6129c581612811565b82525050565b600060e08201905081810360008301526129e5818a6127b6565b90506129f460208301896129bc565b612a0160408301886129bc565b612a0e60608301876129bc565b612a1b6080830186612735565b612a2860a08301856128a6565b612a3560c08301846128a6565b98975050505050505050565b6000602082019050612a5660008301846129bc565b92915050565b612a6581612729565b8114612a7057600080fd5b50565b600081359050612a8281612a5c565b92915050565b60008060408385031215612a9f57612a9e61269a565b5b6000612aad858286016128e7565b9250506020612abe85828601612a73565b9150509250929050565b600080fd5b600080fd5b7f4e487b7100000000000000000000000000000000000000000000000000000000600052604160045260246000fd5b612b0a826127a5565b810181811067ffffffffffffffff82111715612b2957612b28612ad2565b5b80604052505050565b6000612b3c612690565b9050612b488282612b01565b919050565b600067ffffffffffffffff821115612b6857612b67612ad2565b5b612b71826127a5565b9050602081019050919050565b82818337600083830152505050565b6000612ba0612b9b84612b4d565b612b32565b905082815260208101848484011115612bbc57612bbb612acd565b5b612bc7848285612b7e565b509392505050565b600082601f830112612be457612be3612ac8565b5b8135612bf4848260208601612b8d565b91505092915050565b600080600080600060a08688031215612c1957612c1861269a565b5b600086013567ffffffffffffffff811115612c3757612c3661269f565b5b612c4388828901612bcf565b9550506020612c5488828901612832565b9450506040612c6588828901612832565b9350506060612c7688828901612832565b925050608086013567ffffffffffffffff811115612c9757612c9661269f565b5b612ca388828901612bcf565b9150509295509295909350565b600067ffffffffffffffff821115612ccb57612cca612ad2565b5b612cd4826127a5565b9050602081019050919050565b6000612cf4612cef84612cb0565b612b32565b905082815260208101848484011115612d1057612d0f612acd565b5b612d1b848285612b7e565b509392505050565b600082601f830112612d3857612d37612ac8565b5b8135612d48848260208601612ce1565b91505092915050565b60008060008060808587031215612d6b57612d6a61269a565b5b6000612d79878288016128e7565b9450506020612d8a878288016128e7565b9350506040612d9b87828801612832565b925050606085013567ffffffffffffffff811115612dbc57612dbb61269f565b5b612dc887828801612d23565b91505092959194509250565b600081519050919050565b600082825260208201905092915050565b6000819050602082019050919050565b600082825260208201905092915050565b6000612e1c8261275f565b612e268185612e00565b9350612e3681856020860161277b565b612e3f816127a5565b840191505092915050565b612e5381612811565b82525050565b612e6281612729565b82525050565b612e7181612894565b82525050565b600060e0830160008301518482036000860152612e948282612e11565b9150506020830151612ea96020860182612e4a565b506040830151612ebc6040860182612e4a565b506060830151612ecf6060860182612e4a565b506080830151612ee26080860182612e59565b5060a0830151612ef560a0860182612e68565b5060c0830151612f0860c0860182612e68565b508091505092915050565b6000612f1f8383612e77565b905092915050565b6000602082019050919050565b6000612f3f82612dd4565b612f498185612ddf565b935083602082028501612f5b85612df0565b8060005b85811015612f975784840389528151612f788582612f13565b9450612f8383612f27565b925060208a01995050600181019050612f5f565b50829750879550505050505092915050565b60006020820190508181036000830152612fc38184612f34565b905092915050565b60008060408385031215612fe257612fe161269a565b5b6000612ff0858286016128e7565b9250506020613001858286016128e7565b9150509250929050565b7f4e487b7100000000000000000000000000000000000000000000000000000000600052602260045260246000fd5b6000600282049050600182168061305257607f821691505b6020821081036130655761306461300b565b5b50919050565b600060608201905061308060008301866128a6565b61308d60208301856129bc565b61309a60408301846128a6565b949350505050565b60008190508160005260206000209050919050565b60006020601f8301049050919050565b600082821b905092915050565b6000600883026131047fffffffffffffffffffffffffffffffffffffffffffffffffffffffffffffffff826130c7565b61310e86836130c7565b95508019841693508086168417925050509392505050565b6000819050919050565b600061314b61314661314184612811565b613126565b612811565b9050919050565b6000819050919050565b61316583613130565b61317961317182613152565b8484546130d4565b825550505050565b600090565b61318e613181565b61319981848461315c565b505050565b5b818110156131bd576131b2600082613186565b60018101905061319f565b5050565b601f821115613202576131d3816130a2565b6131dc846130b7565b810160208510156131eb578190505b6131ff6131f7856130b7565b83018261319e565b50505b505050565b600082821c905092915050565b600061322560001984600802613207565b1980831691505092915050565b600061323e8383613214565b9150826002028217905092915050565b6132578261275f565b67ffffffffffffffff8111156132705761326f612ad2565b5b61327a825461303a565b6132858282856131c1565b600060209050601f8311600181146132b857600084156132a6578287015190505b6132b08582613232565b865550613318565b601f1984166132c6866130a2565b60005b828110156132ee578489015182556001820191506020850194506020810190506132c9565b8683101561330b5784890151613307601f891682613214565b8355505b6001600288020188555050505b505050505050565b600060808201905061333560008301876129bc565b61334260208301866128a6565b818103604083015261335481856127b6565b905061336360608301846129bc565b95945050505050565b600081905092915050565b60006133828261275f565b61338c818561336c565b935061339c81856020860161277b565b80840191505092915050565b60006133b48285613377565b91506133c08284613377565b91508190509392505050565b7f4861727665737420616c72656164792070757263686173656400000000000000600082015250565b600061340260198361276a565b915061340d826133cc565b602082019050919050565b60006020820190508181036000830152613431816133f5565b9050919050565b7f4e487b7100000000000000000000000000000000000000000000000000000000600052601160045260246000fd5b600061347282612811565b915061347d83612811565b925082820261348b81612811565b915082820484148315176134a2576134a1613438565b5b5092915050565b7f496e636f7272656374207061796d656e7420616d6f756e740000000000000000600082015250565b60006134df60188361276a565b91506134ea826134a9565b602082019050919050565b6000602082019050818103600083015261350e816134d2565b9050919050565b600060608201905061352a60008301866129bc565b61353760208301856128a6565b61354460408301846129bc565b949350505050565b7f4e487b7100000000000000000000000000000000000000000000000000000000600052603260045260246000fd5b600061358682612811565b91507fffffffffffffffffffffffffffffffffffffffffffffffffffffffffffffffff82036135b8576135b7613438565b5b600182019050919050565b7f4f6e6c792062757965722063616e20636f6e6669726d2064656c697665727900600082015250565b60006135f9601f8361276a565b9150613604826135c3565b602082019050919050565b60006020820190508181036000830152613628816135ec565b9050919050565b600081519050919050565b600082825260208201905092915050565b60006136568261362f565b613660818561363a565b935061367081856020860161277b565b613679816127a5565b840191505092915050565b600060808201905061369960008301876128a6565b6136a660208301866128a6565b6136b360408301856129bc565b81810360608301526136c5818461364b565b905095945050505050565b6000815190506136df816126d0565b92915050565b6000602082840312156136fb576136fa61269a565b5b6000613709848285016136d0565b91505092915050565b600060408201905061372760008301856128a6565b61373460208301846129bc565b9392505050565b7f4e487b7100000000000000000000000000000000000000000000000000000000600052601260045260246000fdfea26469706673582212209427ae5c66a956c890eaa549a74d2ef73b80372b4ed3bcd9c9adb2c19abe3d3764736f6c634300081c0033",
  "linkReferences": {},
  "deployedLinkReferences": {}
}